S02B0000416E615F4B6F645F355F4D6567615F50726F5F4D696E695F56697465735F536179616373697A5F32BD
S113000071C000008FC000008DC000008BC00000D4
S113001089C0000087C0000085C0000083C00000C4
S113002081C000007FC000007DC000007BC00000D4
S113003079C0000077C0000075C0000073C00000E4
S113004071C00000A9C600006DC000006BC00000B4
S113005069C0000067C0000065C0000063C0000004
S113006061C000005FC000005DC000005BC0000014
S113007059C0000057C0000055C0000053C0000024
S113008051C000004FC000004DC000004BC0000034
S113009049C0000047C0000045C0000043C0000044
S11300A041C000003FC000003DC000003BC0000054
S11300B039C0000037C0000035C0000033C0000064
S11300C031C000002FC000002DC000002BC0000074
S11300D029C0000027C0000025C0000023C0000084
S11300E021C0000011241FBECFEFD1E2DEBFCDBF7F
S11300F000E00CBF12E0A0E0B2E0E8E3F3E100E0CE
S11301000BBF02C007900D92AC30B107D9F722E0C3
S1130110ACE0B2E001C01D92AF35B207E1F730D6D2
S11301200C949A096DCF84B1877F84B985B18860B6
S113013085B981B1806181B9089584B1806184B940
S113014008951B9904C081E080930C0202C01092B0
S11301500C0280910C02813021F482B1806182B959
S1130160089582B18F7E82B908952F923F924F9263
S11301705F926F927F928F929F92AF92BF92CF9233
S1130180DF92EF92FF920F931F93CF93DF93CDB73C
S1130190DEB72E970FB6F894DEBF0FBECDBF8091A9
S11301A0530290915402009709F447C132D66B016F
S11301B07C018091350290913602A0913702B09172
S11301C03802B701A601481B590B6A0B7B0B8091BF
S11301D0550290915602A0915702B09158024817C7
S11301E059076A077B0708F426C18090470290905C
S11301F04802A0904902B0904A0260911B0270919B
S11302001C0280911D0290911E02A501940111D639
S113021069837A838B839C8320912102309122020B
S11302204091230250912402C501B40102D66D838A
S11302307E838F83988720912F02309130024091E2
S113024031025091320269817A818B819C81A9D7D4
S1130250209143023091440240914502509146025C
S1130260E9D52B013C0160934302709344028093CF
S113027045029093460280913D0290913E029E87F2
S11302808D87892BD1F420914F02309150024091F7
S11302905102509152026D817E818F81988581D760
S11302A09B01AC01C301B201C4D5609343027093B6
S11302B0440280934502909346024090430250903A
S11302C044026090450270904602309013022090E0
S11302D014020091150210911602232D322D402F85
S11302E0512FC301B20159D718166CF4832D922DE6
S11302F0A02FB12F8093430290934402A093450210
S1130300B09346021FC08091170290911802A091E9
S11303101902B0911A0289879A87AB87BC879C011E
S1130320AD01C301B201EAD5882364F489859A85B5
S1130330AB85BC858093430290934402A09345020D
S1130340B0934602AD85BE85AB2B81F020914F0260
S113035030915002409151025091520269817A8148
S11303608B819C811ED72B013C0103C0412C512C55
S1130370320120910F0230911002409111025091EC
S113038012026D817E818F8198850BD79B01AC0110
S1130390609143027091440280914502909146021B
S11303A048D59B01AC01C301B20144D5662E7D83BF
S11303B08983792E262F372F482F592F632D722D9D
S11303C0802F912F9BD58823BCF03090170220906A
S11303D018020091190210911A02232D322D402F78
S11303E0512F662D7D818981972D88D5882324F00E
S11303F0362C2D800981172D832D922DA02FB12FFE
S11304008093250290932602A0932702B09328029A
S11304108092210290922202A0922302B09224029E
S1130420C0923502D0923602E0923702F09238023E
S113043081E090E002C080E090E02E960FB6F89440
S1130440DEBF0FBECDBFDF91CF911F910F91FF9003
S1130450EF90DF90CF90BF90AF909F908F907F9060
S11304606F905F904F903F902F9008954F925F92BE
S11304706F927F928F929F92AF92BF92CF92DF92B0
S1130480EF92FF920F931F93CF93DF9300D01F92AD
S1130490CDB7DEB74B015C0129013A01E982FA824A
S11304A00B831C83D0920E02C0920D0281E090E077
S11304B0CA94CD2811F080E090E090933E0280939E
S11304C03D0280924B0290924C02A0924D02B09257
S11304D04E024092390250923A0260923B0270926C
S11304E03C0289819A81AB81BC8180935B029093A9
S11304F05C02A0935D02B0935E026091550270911C
S11305005602809157029091580295D520E030E030
S11305104AE754E4F7D46B017C0180924F02909235
S11305205002A0925102B09252029B01AC01C3014D
S1130530B20137D62B013C0160932F027093300235
S11305408093310290933202A701960169817A81E6
S11305508B819C81D7D46B017C0160930F027093D3
S113056010028093110290931202809129029091BB
S11305702A02019751F5A501940160E070E0CB01D6
S113058058D460934F027093500280935102909319
S11305905202A301920160E070E0CB014AD460935F
S11305A02F02709330028093310290933202A7019C
S11305B0960160E070E0CB013CD460930F0270932D
S11305C0100280931102909312020F900F900F90DB
S11305D00F90DF91CF911F910F91FF90EF90DF90DB
S11305E0CF90BF90AF909F908F907F906F905F90CF
S11305F04F9008954F925F926F927F928F929F9245
S1130600AF92BF92CF92DF92EF92FF924B015C01C7
S113061069017A01C2D588230CF065C08092170263
S113062090921802A0921902B0921A02C092130278
S1130630D0921402E0921502F092160280915302B5
S113064090915402892B09F44EC040902502509099
S113065026026090270270902802A3019201C7012C
S1130660B6014CD488234CF4C0922502D0922602C1
S1130670E0922702F09228020FC0A3019201C50163
S1130680B4018BD5181644F4809225029092260268
S1130690A0922702B0922802409043025090440254
S11306A06090450270904602A3019201C701B60111
S11306B025D488234CF4C0924302D0924402E092A1
S11306C04502F09246020FC0A3019201C501B40194
S11306D064D5181644F48092430290924402A09286
S11306E04502B0924602FF90EF90DF90CF90BF900A
S11306F0AF909F908F907F906F905F904F900895F0
S11307008F929F92AF92BF92CF92DF92EF92FF921D
S1130710C0902502D0902602E0902702F090280293
S1130720C0924302D0924402E0924502F092460203
S11307308091470290914802A0914902B0914A02E7
S11307408093210290932202A0932302B093240267
S11307508090130290901402A0901502B09016029B
S1130760A5019401C701B60118D518164CF480925E
S1130770430290924402A0924502B092460217C0EE
S11307808090170290901802A0901902B0901A025B
S1130790A5019401C701B601B1D3882344F4809222
S11307A0430290924402A0924502B0924602FF9006
S11307B0EF90DF90CF90BF90AF909F908F9008956F
S11307C0CF93DF93C1E08130910509F0C0E0D0E020
S11307D0019739F48091530290915402892B09F4C2
S11307E08FDFD0935402C0935302DF91CF910895C9
S11307F0CF93DF93EC018091530290915402892BA3
S113080009F444C08091290290912A028C179D0713
S113081009F43CC020914F023091500240915102A2
S11308205091520260E070E0CB0103D360934F0219
S113083070935002809351029093520220912F02A0
S113084030913002409131025091320260E070E008
S1130850CB01EFD260932F02709330028093310268
S11308609093320220910F023091100240911102B4
S11308705091120260E070E0CB01DBD260930F0272
S1130880709310028093110290931202D0932A0263
S1130890C0932902DF91CF9108954F925F926F9296
S11308A07F92AF92BF92CF92DF92EF92FF920F931B
S11308B01F93CF93DF93CDB7DEB728970FB6F89485
S11308C0DEBF0FBECDBF69837A838B839C832901EE
S11308D03A01ED82FE820F83188720E030E04FE773
S11308E053E460E070E0CB0185DE84E690E0A0E0B4
S11308F0B0E08093550290935602A0935702B093B0
S11309005802C50175DFED80FE800F811885A301B3
S1130910920169817A818B819C81A8DD7AD2409091
S11309205502509056026090570270905802DC01B4
S1130930CB0184199509A609B709809335029093D0
S11309403602A0933702B093380228960FB6F89473
S1130950DEBF0FBECDBFDF91CF911F910F91FF90EE
S1130960EF90DF90CF90BF90AF907F906F905F90AB
S11309704F900895009721F480E680937C0005C091
S1130980029719F482E680937C00EAE7F0E083E8BA
S1130990808310927B0080818064808380917A00C0
S11309A086FDFCCF8091790090E008958D3029F484
S11309B081E884BD81E085BD67BD08954F925F9253
S11309C06F927F92AF92BF92CF92DF92EF92FF929B
S11309D00F931F93CF93DF93CDB7DEB729013A016D
S11309E09B01AC0124193509460957098A899B8959
S11309F0AC89BD89BC01CD016A197B098C099D09AB
S1130A0033D4A801970124193509460957095DD43F
S1130A10C601B501620F731F841F951FDF91CF912B
S1130A201F910F91FF90EF90DF90CF90BF90AF9008
S1130A307F906F905F904F9008954F925F926F9266
S1130A407F92AF92BF92CF92DF92EF92FF920F9379
S1130A501F93CF93DF9384B1806884B985B1806894
S1130A6085B92FEF83ED90E3215080409040E1F76A
S1130A7000C0000082E090E07DDF90933402809318
S1130A80330285B18F7785B92FEF83ED90E3215041
S1130A9080409040E1F700C0000082E090E06ADF0F
S1130AA0EC0190935A028093590240903302509083
S1130AB03402052C000C6608770882E090E05ADFC7
S1130AC09E01DD0F440B550BBC01990F880B990B4C
S1130AD01F921F921F92CFEFCF93A12CB12C6501CF
S1130AE0830172016BDF0F900F900F900F90709342
S1130AF0200260931F02072E000C880B990B9DD2D5
S1130B0060934702709348028093490290934A028B
S1130B1080E090E02FDFBC01990F880B990B1F92A6
S1130B201F921F92CF9316E6E12EF12C00E010E005
S1130B3022E130E040E050E041DF0F900F900F9051
S1130B400F907BD260931B0270931C0280931D0252
S1130B5090931E02E0900002F090010200910202C4
S1130B601091030220910402309105024091060283
S1130B7050910702609108027091090280910A0263
S1130B8090910B02CC24C394D12C87DE81E090E0B9
S1130B9017DEDF91CF911F910F91FF90EF90DF90BF
S1130BA0CF90BF90AF907F906F905F904F900895DB
S1130BB04F925F926F927F92AF92BF92CF92DF92E9
S1130BC0EF92FF920F931F93CF93DF9300D01F9266
S1130BD0CDB7DEB780913302909134029C01990F16
S1130BE0440B550B29833A834B835C834090590211
S1130BF050905A02052C000C6608770882E090E0B9
S1130C00B9DEBC01990F880B990B1F921F921F929A
S1130C103FEF3F93A12CB12C6501E980FA800B8151
S1130C201C81A3019201CADE0F900F900F900F90C8
S1130C307093200260931F02072E000C880B990BFF
S1130C40FCD16093470270934802809349029093C9
S1130C504A0280E090E08EDEBC01990F880B990B6C
S1130C601F921F921F924FEF4F9316E6E12EF12C25
S1130C7000E010E022E130E040E050E09FDE0F9021
S1130C800F900F900F90D9D160931B0270931C02A8
S1130C9080931D0290931E02E0900002F0900102E6
S1130CA00091020210910302209104023091050286
S1130CB04091060250910702609108027091090266
S1130CC080910A0290910B02CC24C394D12CE5DDCF
S1130CD0C0900D02D0900E02E0900002F09001024C
S1130CE00091020210910302209104023091050246
S1130CF04091060250910702609108027091090226
S1130D0080910A0290910B02B1DBE0900002F09016
S1130D100102009102021091030220910402309119
S1130D2005024091060250910702609108027091F9
S1130D30090280910A0290910B02CC24C394D12C15
S1130D40ACDD13DA609125027091260280912702AE
S1130D50909128023FD18DE029DE0F900F900F90E3
S1130D600F90DF91CF911F910F91FF90EF90DF9043
S1130D70CF90BF90AF907F906F905F904F90089509
S1130D8060E074E284EF90E02CD07894CCD955DE06
S1130D90D8D90EDFD2D9FCCF1F920F920FB60F9283
S1130DA011248F939F93AF93BF9380912B029091C3
S1130DB02C02A0912D02B0912E020196A11DB11D0D
S1130DC080932B0290932C02A0932D02B0932E02B9
S1130DD0BF91AF919F918F910F900FBE0F901F9075
S1130DE0189520E43FE140E050E04DD2E1E8F0E026
S1130DF080818A608083BB27A52F942F832F8093C3
S1130E00890020938800EFE6F0E08081826080838F
S1130E100895F89421E009C060912B0270912C028E
S1130E2080912D0290912E0220E02111F5CF78942B
S1130E3008955058BB27AA270ED075C166D130F04B
S1130E406BD120F031F49F3F11F41EF45BC10EF41A
S1130E50E095E7FB51C1E92F77D180F3BA17620718
S1130E6073078407950718F071F49EF58FC10EF48B
S1130E70E0950B2EBA2FA02D0B01B90190010C01A6
S1130E80CA01A0011124FF27591B99F0593F50F4BE
S1130E90503E68F11A16F040A22F232F342F442716
S1130EA0585FF3CF469537952795A795F04053950E
S1130EB0C9F77EF41F16BA0B620B730B840BBAF0DE
S1130EC09150A1F0FF0FBB1F661F771F881FC2F749
S1130ED00EC0BA0F621F731F841F48F4879577955D
S1130EE06795B795F7959E3F08F0B3CF9395880F14
S1130EF008F09927EE0F979587950895D9D008F4AF
S1130F0081E008950CD00FC107D140F0FED030F03D
S1130F1021F45F3F19F0F0C0511139C1F3C014D16D
S1130F2098F39923C9F35523B1F3951B550BBB27AC
S1130F30AA2762177307840738F09F5F5F4F220F59
S1130F40331F441FAA1FA9F333D00E2E3AF0E0E852
S1130F5030D091505040E695001CCAF729D0FE2F9E
S1130F6027D0660F771F881FBB1F26173707480730
S1130F70AB07B0E809F0BB0B802DBF01FF279358E6
S1130F805F4F2AF09E3F510568F0B6C000C15F3F35
S1130F90ECF3983EDCF3869577956795B795F795CE
S1130FA09F5FC9F7880F911D9695879597F90895C6
S1130FB0E1E0660F771F881FBB1F62177307840762
S1130FC0BA0720F0621B730B840BBA0BEE1F88F771
S1130FD0E095089504D06894B111D9C00895BCD0A7
S1130FE088F09F5790F0B92F9927B751A0F0D1F00E
S1130FF0660F771F881F991F1AF0BA95C9F712C098
S1131000B13081F0C3D0B1E00895C0C0672F782F0C
S11310108827B85F39F0B93FCCF386957795679503
S1131020B395D9F73EF490958095709561957F4F6F
S11310308F4F9F4F0895E89409C097FB3EF4909515
S11310408095709561957F4F8F4F9F4F9923A9F09D
S1131050F92F96E9BB279395F6958795779567952C
S1131060B795F111F8CFFAF4BB0F11F460FF1BC070
S11310706F5F7F4F8F4F9F4F16C0882311F096E903
S113108011C0772321F09EE8872F762F05C06623B1
S113109071F096E8862F70E060E02AF09A95660F6A
S11310A0771F881FDAF7880F9695879597F9089523
S11310B0990F0008550FAA0BE0E8FEEF1616170665
S11310C0E807F907C0F012161306E407F50798F0CD
S11310D0621B730B840B950B39F40A2661F0232BE6
S11310E0242B252B21F408950A2609F4A140A69562
S11310F08FEF811D811D089597F99F6780E870E047
S113110060E008959FEF80EC089500240A94161679
S1131110170618060906089500240A9412161306E1
S1131120140605060895092E0394000C11F488236F
S113113052F0BB0F40F4BF2B11F460FF04C06F5F8B
S11311407F4F8F4F9F4F089557FD9058440F551F61
S113115059F05F3F71F04795880F97FB991F61F035
S11311609F3F79F087950895121613061406551FAC
S1131170F2CF4695F1DF08C0161617061806991F18
S1131180F1CF86957105610508940895E894BB270D
S113119066277727CB0197F908958ADF08F48FEF44
S11311A008950BD0C0CFB1DF28F0B6DF18F0952337
S11311B009F0A2CFA7CF1124EACFC6DFA0F3959FF1
S11311C0D1F3950F50E0551F629FF001729FBB272A
S11311D0F00DB11D639FAA27F00DB11DAA1F649FD6
S11311E06627B00DA11D661F829F2227B00DA11D89
S11311F0621F739FB00DA11D621F839FA00D611D0F
S1131200221F749F3327A00D611D231F849F600D2F
S1131210211D822F762F6A2F11249F5750408AF068
S1131220E1F088234AF0EE0FFF1FBB1F661F771FF4
S1131230881F91505040A9F79E3F510570F05CCF34
S1131240A6CF5F3FECF3983EDCF3869577956795E0
S1131250B795F795E7959F5FC1F7FE2B880F911D12
S11312609695879597F90895DB018F939F9349D0BD
S1131270BF91AF91A29F800D911DA39F900DB29F2E
S1131280900D11240895A1E21A2EAA1BBB1BFD0187
S11312900DC0AA1FBB1FEE1FFF1FA217B307E40751
S11312A0F50720F0A21BB30BE40BF50B661F771FA9
S11312B0881F991F1A9469F7609570958095909589
S11312C09B01AC01BD01CF010895052E97FB16F4D7
S11312D000940FD057FD05D0D6DF07FC02D046F4AA
S11312E008C050954095309521953F4F4F4F5F4F23
S11312F0089590958095709561957F4F8F4F9F4F7E
S1131300089509D0A59F900DB49F900DA49F800DC2
S1131310911D11240895A29FB001B39FC001A39F02
S1131320700D811D1124911DB29F700D811D11241A
S10B1330911D0895F894FFCF0C
S10F13389A99993FBD37863500000041AA
S9030000FC
